{
  "contractName": "CryptoScholarship",
  "abi": [
    {
      "inputs": [],
      "stateMutability": "nonpayable",
      "type": "constructor"
    },
    {
      "anonymous": false,
      "inputs": [
        {
          "indexed": false,
          "internalType": "string",
          "name": "message",
          "type": "string"
        },
        {
          "indexed": false,
          "internalType": "uint256",
          "name": "scholarshipId",
          "type": "uint256"
        },
        {
          "indexed": false,
          "internalType": "string",
          "name": "scholarshipName",
          "type": "string"
        },
        {
          "indexed": false,
          "internalType": "uint256",
          "name": "scholarshipBalance",
          "type": "uint256"
        },
        {
          "indexed": false,
          "internalType": "uint256",
          "name": "scholarshipNeed",
          "type": "uint256"
        }
      ],
      "name": "LogCreateScholarship",
      "type": "event"
    },
    {
      "anonymous": false,
      "inputs": [
        {
          "indexed": false,
          "internalType": "string",
          "name": "message",
          "type": "string"
        },
        {
          "indexed": false,
          "internalType": "uint256",
          "name": "scholarshipId",
          "type": "uint256"
        },
        {
          "indexed": false,
          "internalType": "string",
          "name": "scholarshipName",
          "type": "string"
        },
        {
          "indexed": false,
          "internalType": "uint256",
          "name": "scholarshipBalance",
          "type": "uint256"
        },
        {
          "indexed": false,
          "internalType": "uint256",
          "name": "scholarshipNeed",
          "type": "uint256"
        }
      ],
      "name": "LogDonation",
      "type": "event"
    },
    {
      "anonymous": false,
      "inputs": [
        {
          "indexed": false,
          "internalType": "string",
          "name": "message",
          "type": "string"
        },
        {
          "indexed": false,
          "internalType": "uint256",
          "name": "scholarshipId",
          "type": "uint256"
        },
        {
          "indexed": false,
          "internalType": "string",
          "name": "scholarshipName",
          "type": "string"
        },
        {
          "indexed": false,
          "internalType": "uint256",
          "name": "scholarshipBalance",
          "type": "uint256"
        },
        {
          "indexed": false,
          "internalType": "uint256",
          "name": "scholarshipNeed",
          "type": "uint256"
        }
      ],
      "name": "LogNameUpdated",
      "type": "event"
    },
    {
      "anonymous": false,
      "inputs": [
        {
          "indexed": false,
          "internalType": "string",
          "name": "message",
          "type": "string"
        },
        {
          "indexed": false,
          "internalType": "uint256",
          "name": "scholarshipId",
          "type": "uint256"
        },
        {
          "indexed": false,
          "internalType": "string",
          "name": "scholarshipName",
          "type": "string"
        },
        {
          "indexed": false,
          "internalType": "uint256",
          "name": "scholarshipBalance",
          "type": "uint256"
        },
        {
          "indexed": false,
          "internalType": "uint256",
          "name": "scholarshipNeed",
          "type": "uint256"
        }
      ],
      "name": "LogNeedUpdated",
      "type": "event"
    },
    {
      "anonymous": false,
      "inputs": [
        {
          "indexed": true,
          "internalType": "address",
          "name": "previousOwner",
          "type": "address"
        },
        {
          "indexed": true,
          "internalType": "address",
          "name": "newOwner",
          "type": "address"
        }
      ],
      "name": "OwnershipTransferred",
      "type": "event"
    },
    {
      "inputs": [],
      "name": "owner",
      "outputs": [
        {
          "internalType": "address",
          "name": "",
          "type": "address"
        }
      ],
      "stateMutability": "view",
      "type": "function",
      "constant": true
    },
    {
      "inputs": [],
      "name": "renounceOwnership",
      "outputs": [],
      "stateMutability": "nonpayable",
      "type": "function"
    },
    {
      "inputs": [
        {
          "internalType": "uint256",
          "name": "",
          "type": "uint256"
        }
      ],
      "name": "scholarshipList",
      "outputs": [
        {
          "internalType": "uint256",
          "name": "scholarshipId",
          "type": "uint256"
        },
        {
          "internalType": "string",
          "name": "scholarshipName",
          "type": "string"
        },
        {
          "internalType": "uint256",
          "name": "scholarshipBalance",
          "type": "uint256"
        },
        {
          "internalType": "uint256",
          "name": "scholarshipNeed",
          "type": "uint256"
        }
      ],
      "stateMutability": "view",
      "type": "function",
      "constant": true
    },
    {
      "inputs": [
        {
          "internalType": "address",
          "name": "newOwner",
          "type": "address"
        }
      ],
      "name": "transferOwnership",
      "outputs": [],
      "stateMutability": "nonpayable",
      "type": "function"
    },
    {
      "inputs": [
        {
          "internalType": "string",
          "name": "_scholarshipName",
          "type": "string"
        },
        {
          "internalType": "uint256",
          "name": "_scholarshipNeed",
          "type": "uint256"
        }
      ],
      "name": "createScholarship",
      "outputs": [
        {
          "internalType": "bool",
          "name": "",
          "type": "bool"
        }
      ],
      "stateMutability": "nonpayable",
      "type": "function"
    },
    {
      "inputs": [
        {
          "internalType": "uint256",
          "name": "scholarshipId",
          "type": "uint256"
        },
        {
          "internalType": "string",
          "name": "scholarshipName",
          "type": "string"
        }
      ],
      "name": "updateScholarshipName",
      "outputs": [
        {
          "internalType": "bool",
          "name": "",
          "type": "bool"
        }
      ],
      "stateMutability": "nonpayable",
      "type": "function"
    },
    {
      "inputs": [
        {
          "internalType": "uint256",
          "name": "_scholarshipId",
          "type": "uint256"
        },
        {
          "internalType": "uint256",
          "name": "_scholarshipNeed",
          "type": "uint256"
        }
      ],
      "name": "updateScholarshipNeed",
      "outputs": [
        {
          "internalType": "bool",
          "name": "",
          "type": "bool"
        }
      ],
      "stateMutability": "nonpayable",
      "type": "function"
    },
    {
      "inputs": [
        {
          "internalType": "uint256",
          "name": "scholarshipId",
          "type": "uint256"
        }
      ],
      "name": "sendDonation",
      "outputs": [
        {
          "internalType": "bool",
          "name": "",
          "type": "bool"
        }
      ],
      "stateMutability": "payable",
      "type": "function",
      "payable": true
    },
    {
      "inputs": [
        {
          "internalType": "uint256",
          "name": "scholarshipId",
          "type": "uint256"
        }
      ],
      "name": "getScholarshipValues",
      "outputs": [
        {
          "internalType": "string",
          "name": "",
          "type": "string"
        },
        {
          "internalType": "uint256",
          "name": "",
          "type": "uint256"
        },
        {
          "internalType": "uint256",
          "name": "",
          "type": "uint256"
        }
      ],
      "stateMutability": "view",
      "type": "function",
      "constant": true
    },
    {
      "inputs": [],
      "name": "getScholarshipListLength",
      "outputs": [
        {
          "internalType": "uint256",
          "name": "",
          "type": "uint256"
        }
      ],
      "stateMutability": "view",
      "type": "function",
      "constant": true
    }
  ],
  "bytecode": "0x608060405234801561001057600080fd5b5061002d61002261003e60201b60201c565b61004660201b60201c565b60028054905060018190555061010a565b600033905090565b60008060009054906101000a900473ffffffffffffffffffffffffffffffffffffffff169050816000806101000a81548173ffffffffffffffffffffffffffffffffffffffff021916908373ffffffffffffffffffffffffffffffffffffffff1602179055508173ffffffffffffffffffffffffffffffffffffffff168173ffffffffffffffffffffffffffffffffffffffff167f8be0079c531659141344cd1fd0a4f28419497f9722a3daafe3b4186f6b6457e060405160405180910390a35050565b611e13806101196000396000f3fe6080604052600436106100915760003560e01c80639daef279116100595780639daef27914610184578063a2803115146101c1578063ebd4fbb4146101ec578063f2fde38b1461022c578063fa2abdc91461025557610091565b80631237e47c14610096578063665588c9146100d5578063715018a6146101055780637acdaf651461011c5780638da5cb5b14610159575b600080fd5b3480156100a257600080fd5b506100bd60048036038101906100b8919061116f565b610292565b6040516100cc93929190611244565b60405180910390f35b6100ef60048036038101906100ea919061116f565b6103f7565b6040516100fc919061129d565b60405180910390f35b34801561011157600080fd5b5061011a610735565b005b34801561012857600080fd5b50610143600480360381019061013e91906113ed565b6107bd565b604051610150919061129d565b60405180910390f35b34801561016557600080fd5b5061016e6109c3565b60405161017b919061148a565b60405180910390f35b34801561019057600080fd5b506101ab60048036038101906101a691906114a5565b6109ec565b6040516101b8919061129d565b60405180910390f35b3480156101cd57600080fd5b506101d6610bd4565b6040516101e39190611501565b60405180910390f35b3480156101f857600080fd5b50610213600480360381019061020e919061116f565b610be1565b604051610223949392919061151c565b60405180910390f35b34801561023857600080fd5b50610253600480360381019061024e9190611594565b610ca9565b005b34801561026157600080fd5b5061027c600480360381019061027791906115c1565b610da1565b604051610289919061129d565b60405180910390f35b606060008083600081101580156102ad575060028054905081105b6102ec576040517f08c379a00000000000000000000000000000000000000000000000000000000081526004016102e390611673565b60405180910390fd5b60028581548110610300576102ff611693565b5b90600052602060002090600402016001016002868154811061032557610324611693565b5b9060005260206000209060040201600201546002878154811061034b5761034a611693565b5b906000526020600020906004020160030154828054610369906116f1565b80601f0160208091040260200160405190810160405280929190818152602001828054610395906116f1565b80156103e25780601f106103b7576101008083540402835291602001916103e2565b820191906000526020600020905b8154815290600101906020018083116103c557829003601f168201915b50505050509250935093509350509193909250565b60008034101561043c576040517f08c379a000000000000000000000000000000000000000000000000000000000815260040161043390611795565b60405180910390fd5b8160008110158015610452575060028054905081105b610491576040517f08c379a000000000000000000000000000000000000000000000000000000000815260040161048890611673565b60405180910390fd5b6000600284815481106104a7576104a6611693565b5b906000526020600020906004020160020154905034600285815481106104d0576104cf611693565b5b906000526020600020906004020160020160008282546104f091906117e4565b92505081905550806002858154811061050c5761050b611693565b5b906000526020600020906004020160020154101561052d5761052c61183a565b5b60006002858154811061054357610542611693565b5b90600052602060002090600402016003015490506002858154811061056b5761056a611693565b5b9060005260206000209060040201600301543411156105b45760006002868154811061059a57610599611693565b5b9060005260206000209060040201600301819055506105f1565b34600286815481106105c9576105c8611693565b5b906000526020600020906004020160030160008282546105e99190611869565b925050819055505b60006002868154811061060757610606611693565b5b9060005260206000209060040201600301541015801561064c5750806002868154811061063757610636611693565b5b90600052602060002090600402016003015411155b6106595761065861183a565b5b7f360021efacf8ec6c3f445329b2da85f94df3d46c33e50d14ddacfe00235074eb6002868154811061068e5761068d611693565b5b906000526020600020906004020160000154600287815481106106b4576106b3611693565b5b9060005260206000209060040201600101600288815481106106d9576106d8611693565b5b906000526020600020906004020160020154600289815481106106ff576106fe611693565b5b906000526020600020906004020160030154604051610721949392919061197e565b60405180910390a160019350505050919050565b61073d610fb6565b73ffffffffffffffffffffffffffffffffffffffff1661075b6109c3565b73ffffffffffffffffffffffffffffffffffffffff16146107b1576040517f08c379a00000000000000000000000000000000000000000000000000000000081526004016107a890611a29565b60405180910390fd5b6107bb6000610fbe565b565b6000816000811015610804576040517f08c379a00000000000000000000000000000000000000000000000000000000081526004016107fb90611a95565b60405180910390fd5b60026040518060800160405280600154815260200186815260200160008152602001858152509080600181540180825580915050600190039060005260206000209060040201600090919091909150600082015181600001556020820151816001019080519060200190610879929190611082565b506040820151816002015560608201518160030155505060006002600154815481106108a8576108a7611693565b5b906000526020600020906004020160020154146108c8576108c761183a565b5b7f48aa0ea183cdb2538511ded3548d80156864f825ec79ee6bb31c4c82394c21ab6002600154815481106108ff576108fe611693565b5b90600052602060002090600402016000015460026001548154811061092757610926611693565b5b906000526020600020906004020160010160026001548154811061094e5761094d611693565b5b90600052602060002090600402016002015460026001548154811061097657610975611693565b5b9060005260206000209060040201600301546040516109989493929190611b01565b60405180910390a1600160008154809291906109b390611b60565b9190505550600191505092915050565b60008060009054906101000a900473ffffffffffffffffffffffffffffffffffffffff16905090565b60006109f6610fb6565b73ffffffffffffffffffffffffffffffffffffffff16610a146109c3565b73ffffffffffffffffffffffffffffffffffffffff1614610a6a576040517f08c379a0000000000000000000000000000000000000000000000000000000008152600401610a6190611a29565b60405180910390fd5b8260008110158015610a80575060028054905081105b610abf576040517f08c379a0000000000000000000000000000000000000000000000000000000008152600401610ab690611673565b60405180910390fd5b8260028581548110610ad457610ad3611693565b5b90600052602060002090600402016001019080519060200190610af8929190611082565b507f6e2efae76d90dd44e9c8a590c779c439b230f7d03d3614f0898d8b7937a146a360028581548110610b2e57610b2d611693565b5b90600052602060002090600402016000015460028681548110610b5457610b53611693565b5b906000526020600020906004020160010160028781548110610b7957610b78611693565b5b90600052602060002090600402016002015460028881548110610b9f57610b9e611693565b5b906000526020600020906004020160030154604051610bc19493929190611c1b565b60405180910390a1600191505092915050565b6000600280549050905090565b60028181548110610bf157600080fd5b9060005260206000209060040201600091509050806000015490806001018054610c1a906116f1565b80601f0160208091040260200160405190810160405280929190818152602001828054610c46906116f1565b8015610c935780601f10610c6857610100808354040283529160200191610c93565b820191906000526020600020905b815481529060010190602001808311610c7657829003601f168201915b5050505050908060020154908060030154905084565b610cb1610fb6565b73ffffffffffffffffffffffffffffffffffffffff16610ccf6109c3565b73ffffffffffffffffffffffffffffffffffffffff1614610d25576040517f08c379a0000000000000000000000000000000000000000000000000000000008152600401610d1c90611a29565b60405180910390fd5b600073ffffffffffffffffffffffffffffffffffffffff168173ffffffffffffffffffffffffffffffffffffffff161415610d95576040517f08c379a0000000000000000000000000000000000000000000000000000000008152600401610d8c90611cec565b60405180910390fd5b610d9e81610fbe565b50565b60008260008110158015610db9575060028054905081105b610df8576040517f08c379a0000000000000000000000000000000000000000000000000000000008152600401610def90611673565b60405180910390fd5b826000811015610e3d576040517f08c379a0000000000000000000000000000000000000000000000000000000008152600401610e3490611a95565b60405180910390fd5b600060028681548110610e5357610e52611693565b5b90600052602060002090600402016003015490508460028781548110610e7c57610e7b611693565b5b90600052602060002090600402016003016000828254610e9c91906117e4565b925050819055508060028781548110610eb857610eb7611693565b5b9060005260206000209060040201600301541015610ed957610ed861183a565b5b7fea9b626d169e37b3676bdddd2a35d41e027d90a07f77ed01ea9e51cade063d4e60028781548110610f0e57610f0d611693565b5b90600052602060002090600402016000015460028881548110610f3457610f33611693565b5b906000526020600020906004020160010160028981548110610f5957610f58611693565b5b90600052602060002090600402016002015460028a81548110610f7f57610f7e611693565b5b906000526020600020906004020160030154604051610fa19493929190611d7e565b60405180910390a16001935050505092915050565b600033905090565b60008060009054906101000a900473ffffffffffffffffffffffffffffffffffffffff169050816000806101000a81548173ffffffffffffffffffffffffffffffffffffffff021916908373ffffffffffffffffffffffffffffffffffffffff1602179055508173ffffffffffffffffffffffffffffffffffffffff168173ffffffffffffffffffffffffffffffffffffffff167f8be0079c531659141344cd1fd0a4f28419497f9722a3daafe3b4186f6b6457e060405160405180910390a35050565b82805461108e906116f1565b90600052602060002090601f0160209004810192826110b057600085556110f7565b82601f106110c957805160ff19168380011785556110f7565b828001600101855582156110f7579182015b828111156110f65782518255916020019190600101906110db565b5b5090506111049190611108565b5090565b5b80821115611121576000816000905550600101611109565b5090565b6000604051905090565b600080fd5b600080fd5b6000819050919050565b61114c81611139565b811461115757600080fd5b50565b60008135905061116981611143565b92915050565b6000602082840312156111855761118461112f565b5b60006111938482850161115a565b91505092915050565b600081519050919050565b600082825260208201905092915050565b60005b838110156111d65780820151818401526020810190506111bb565b838111156111e5576000848401525b50505050565b6000601f19601f8301169050919050565b60006112078261119c565b61121181856111a7565b93506112218185602086016111b8565b61122a816111eb565b840191505092915050565b61123e81611139565b82525050565b6000606082019050818103600083015261125e81866111fc565b905061126d6020830185611235565b61127a6040830184611235565b949350505050565b60008115159050919050565b61129781611282565b82525050565b60006020820190506112b2600083018461128e565b92915050565b600080fd5b600080fd5b7f4e487b7100000000000000000000000000000000000000000000000000000000600052604160045260246000fd5b6112fa826111eb565b810181811067ffffffffffffffff82111715611319576113186112c2565b5b80604052505050565b600061132c611125565b905061133882826112f1565b919050565b600067ffffffffffffffff821115611358576113576112c2565b5b611361826111eb565b9050602081019050919050565b82818337600083830152505050565b600061139061138b8461133d565b611322565b9050828152602081018484840111156113ac576113ab6112bd565b5b6113b784828561136e565b509392505050565b600082601f8301126113d4576113d36112b8565b5b81356113e484826020860161137d565b91505092915050565b600080604083850312156114045761140361112f565b5b600083013567ffffffffffffffff81111561142257611421611134565b5b61142e858286016113bf565b925050602061143f8582860161115a565b9150509250929050565b600073ffffffffffffffffffffffffffffffffffffffff82169050919050565b600061147482611449565b9050919050565b61148481611469565b82525050565b600060208201905061149f600083018461147b565b92915050565b600080604083850312156114bc576114bb61112f565b5b60006114ca8582860161115a565b925050602083013567ffffffffffffffff8111156114eb576114ea611134565b5b6114f7858286016113bf565b9150509250929050565b60006020820190506115166000830184611235565b92915050565b60006080820190506115316000830187611235565b818103602083015261154381866111fc565b90506115526040830185611235565b61155f6060830184611235565b95945050505050565b61157181611469565b811461157c57600080fd5b50565b60008135905061158e81611568565b92915050565b6000602082840312156115aa576115a961112f565b5b60006115b88482850161157f565b91505092915050565b600080604083850312156115d8576115d761112f565b5b60006115e68582860161115a565b92505060206115f78582860161115a565b9150509250929050565b7f5363686f6c6172736869702049442073686f756c64206265203e3d203020616e60008201527f64203c207363686f6c6172736869704c6973742e6c656e677468000000000000602082015250565b600061165d603a836111a7565b915061166882611601565b604082019050919050565b6000602082019050818103600083015261168c81611650565b9050919050565b7f4e487b7100000000000000000000000000000000000000000000000000000000600052603260045260246000fd5b7f4e487b7100000000000000000000000000000000000000000000000000000000600052602260045260246000fd5b6000600282049050600182168061170957607f821691505b6020821081141561171d5761171c6116c2565b5b50919050565b7f446f6e6174696f6e20286d73672e76616c7565292073686f756c64206265203e60008201527f3d20300000000000000000000000000000000000000000000000000000000000602082015250565b600061177f6023836111a7565b915061178a82611723565b604082019050919050565b600060208201905081810360008301526117ae81611772565b9050919050565b7f4e487b7100000000000000000000000000000000000000000000000000000000600052601160045260246000fd5b60006117ef82611139565b91506117fa83611139565b9250827fffffffffffffffffffffffffffffffffffffffffffffffffffffffffffffffff0382111561182f5761182e6117b5565b5b828201905092915050565b7f4e487b7100000000000000000000000000000000000000000000000000000000600052600160045260246000fd5b600061187482611139565b915061187f83611139565b925082821015611892576118916117b5565b5b828203905092915050565b7f446f6e6174696f6e205375636365737366756c00000000000000000000000000600082015250565b60006118d36013836111a7565b91506118de8261189d565b602082019050919050565b60008190508160005260206000209050919050565b6000815461190b816116f1565b61191581866111a7565b94506001821660008114611930576001811461194257611975565b60ff1983168652602086019350611975565b61194b856118e9565b60005b8381101561196d5781548189015260018201915060208101905061194e565b808801955050505b50505092915050565b600060a0820190508181036000830152611997816118c6565b90506119a66020830187611235565b81810360408301526119b881866118fe565b90506119c76060830185611235565b6119d46080830184611235565b95945050505050565b7f4f776e61626c653a2063616c6c6572206973206e6f7420746865206f776e6572600082015250565b6000611a136020836111a7565b9150611a1e826119dd565b602082019050919050565b60006020820190508181036000830152611a4281611a06565b9050919050565b7f5363686f6c617273686970204e6565642073686f756c64206265203e3d203000600082015250565b6000611a7f601f836111a7565b9150611a8a82611a49565b602082019050919050565b60006020820190508181036000830152611aae81611a72565b9050919050565b7f5363686f6c617273686970205375636365737366756c6c792043726561746564600082015250565b6000611aeb6020836111a7565b9150611af682611ab5565b602082019050919050565b600060a0820190508181036000830152611b1a81611ade565b9050611b296020830187611235565b8181036040830152611b3b81866118fe565b9050611b4a6060830185611235565b611b576080830184611235565b95945050505050565b6000611b6b82611139565b91507fffffffffffffffffffffffffffffffffffffffffffffffffffffffffffffffff821415611b9e57611b9d6117b5565b5b600182019050919050565b7f5363686f6c617273686970204e616d652055706461746520537563636573736660008201527f756c000000000000000000000000000000000000000000000000000000000000602082015250565b6000611c056022836111a7565b9150611c1082611ba9565b604082019050919050565b600060a0820190508181036000830152611c3481611bf8565b9050611c436020830187611235565b8181036040830152611c5581866118fe565b9050611c646060830185611235565b611c716080830184611235565b95945050505050565b7f4f776e61626c653a206e6577206f776e657220697320746865207a65726f206160008201527f6464726573730000000000000000000000000000000000000000000000000000602082015250565b6000611cd66026836111a7565b9150611ce182611c7a565b604082019050919050565b60006020820190508181036000830152611d0581611cc9565b9050919050565b7f5363686f6c617273686970204e656564205375636365737366756c6c7920557060008201527f6461746564000000000000000000000000000000000000000000000000000000602082015250565b6000611d686025836111a7565b9150611d7382611d0c565b604082019050919050565b600060a0820190508181036000830152611d9781611d5b565b9050611da66020830187611235565b8181036040830152611db881866118fe565b9050611dc76060830185611235565b611dd46080830184611235565b9594505050505056fea26469706673582212205cff8c7ee6138b538727424e8dbf33e2458a7fa5933820120d44c03bcf84a2a064736f6c634300080b0033",
  "immutableReferences": {},
  "source": "// SPDX-License-Identifier: MIT\npragma solidity ^0.8.0;\nimport \"@openzeppelin/contracts/access/Ownable.sol\";\n\ncontract CryptoScholarship is Ownable {\n  struct Scholarship {\n    uint scholarshipId;\n    string scholarshipName;\n    uint scholarshipBalance;\n    uint scholarshipNeed;\n  }\n\n  uint currentScholarshipId;\n\n  Scholarship[] public scholarshipList;\n\n  event LogCreateScholarship(string message, uint scholarshipId, string scholarshipName, uint scholarshipBalance, uint scholarshipNeed);\n  event LogNameUpdated(string message, uint scholarshipId, string scholarshipName, uint scholarshipBalance, uint scholarshipNeed);\n  event LogNeedUpdated(string message, uint scholarshipId, string scholarshipName, uint scholarshipBalance, uint scholarshipNeed);\n  event LogDonation(string message, uint scholarshipId, string scholarshipName, uint scholarshipBalance, uint scholarshipNeed);\n\n  modifier scholarshipIdValidity(uint _scholarshipId) {\n    require(\n      _scholarshipId >= 0 && _scholarshipId < scholarshipList.length,\n      \"Scholarship ID should be >= 0 and < scholarshipList.length\"\n    );\n    _;\n  }\n\n  modifier scholarshipNeedValidity(uint _scholarshipNeed) {\n    require(\n      _scholarshipNeed >= 0,\n      \"Scholarship Need should be >= 0\"\n    );\n    _;\n  }\n\n  modifier donationValidity() {\n    require(\n      msg.value >= 0,\n      \"Donation (msg.value) should be >= 0\"\n    );\n    _;\n  }\n\n  constructor() public {\n    currentScholarshipId = scholarshipList.length;\n  }\n\n  function createScholarship(string memory _scholarshipName, uint _scholarshipNeed)\n    public\n    scholarshipNeedValidity(_scholarshipNeed)\n    returns(bool)\n  {\n    scholarshipList.push(Scholarship({scholarshipId: currentScholarshipId, scholarshipName: _scholarshipName, scholarshipBalance: 0, scholarshipNeed: _scholarshipNeed}));\n    assert(scholarshipList[currentScholarshipId].scholarshipBalance == 0);\n    emit LogCreateScholarship(\n      \"Scholarship Successfully Created\",\n      scholarshipList[currentScholarshipId].scholarshipId,\n      scholarshipList[currentScholarshipId].scholarshipName,\n      scholarshipList[currentScholarshipId].scholarshipBalance,\n      scholarshipList[currentScholarshipId].scholarshipNeed\n    );\n    currentScholarshipId++;\n    return true;\n  }\n\n  function updateScholarshipName(uint scholarshipId, string memory scholarshipName)\n    public\n    onlyOwner\n    scholarshipIdValidity(scholarshipId)\n    returns(bool)\n  {\n    scholarshipList[scholarshipId].scholarshipName = scholarshipName;\n    emit LogNameUpdated(\n      \"Scholarship Name Update Successful\",\n      scholarshipList[scholarshipId].scholarshipId,\n      scholarshipList[scholarshipId].scholarshipName,\n      scholarshipList[scholarshipId].scholarshipBalance,\n      scholarshipList[scholarshipId].scholarshipNeed\n    );\n    return true;\n  }\n\n  function updateScholarshipNeed(uint _scholarshipId, uint _scholarshipNeed)\n    public\n    scholarshipIdValidity(_scholarshipId)\n    scholarshipNeedValidity(_scholarshipNeed)\n    returns(bool)\n  {\n    uint oldScholarshipNeed = scholarshipList[_scholarshipId].scholarshipNeed;\n    scholarshipList[_scholarshipId].scholarshipNeed += _scholarshipNeed;\n    assert(scholarshipList[_scholarshipId].scholarshipNeed >= oldScholarshipNeed);\n    emit LogNeedUpdated(\n      \"Scholarship Need Successfully Updated\",\n      scholarshipList[_scholarshipId].scholarshipId,\n      scholarshipList[_scholarshipId].scholarshipName,\n      scholarshipList[_scholarshipId].scholarshipBalance,\n      scholarshipList[_scholarshipId].scholarshipNeed\n    );\n    return true;\n  }\n\n  function sendDonation(uint scholarshipId)\n    public\n    payable\n    donationValidity()\n    scholarshipIdValidity(scholarshipId)\n    returns(bool)\n  {\n\n    uint oldScholarshipBalance = scholarshipList[scholarshipId].scholarshipBalance;\n    scholarshipList[scholarshipId].scholarshipBalance+=msg.value;\n    assert(scholarshipList[scholarshipId].scholarshipBalance >= oldScholarshipBalance);\n\n    uint oldScholarshipNeed = scholarshipList[scholarshipId].scholarshipNeed;\n    if(msg.value > scholarshipList[scholarshipId].scholarshipNeed) scholarshipList[scholarshipId].scholarshipNeed = 0;\n    else scholarshipList[scholarshipId].scholarshipNeed-=msg.value;\n    assert(scholarshipList[scholarshipId].scholarshipNeed >= 0 && scholarshipList[scholarshipId].scholarshipNeed <= oldScholarshipNeed);\n    emit LogDonation(\n      \"Donation Successful\",\n      scholarshipList[scholarshipId].scholarshipId,\n      scholarshipList[scholarshipId].scholarshipName,\n      scholarshipList[scholarshipId].scholarshipBalance,\n      scholarshipList[scholarshipId].scholarshipNeed\n    );\n    return true;\n  }\n\n  function getScholarshipValues(uint scholarshipId)\n    public\n    view\n    scholarshipIdValidity(scholarshipId)\n    returns(string memory, uint, uint)\n  {\n    return (scholarshipList[scholarshipId].scholarshipName, scholarshipList[scholarshipId].scholarshipBalance, scholarshipList[scholarshipId].scholarshipNeed);\n  }\n\n  function getScholarshipListLength()\n    public\n    view\n    returns(uint)\n  {\n    return scholarshipList.length;\n  }\n}\n",
  "sourcePath": "/Users/rafaelandara/consensys/cloned/blockchain-developer-bootcamp-final-project/contracts/CryptoScholarship.sol",
  "compiler": {
    "name": "solc",
    "version": "0.8.11+commit.d7f03943.Emscripten.clang"
  },
  "schemaVersion": "3.4.4",
  "updatedAt": "2022-01-14T20:37:24.112Z",
  "networkType": "ethereum",
  "devdoc": {
    "kind": "dev",
    "methods": {
      "owner()": {
        "details": "Returns the address of the current owner."
      },
      "renounceOwnership()": {
        "details": "Leaves the contract without owner. It will not be possible to call `onlyOwner` functions anymore. Can only be called by the current owner. NOTE: Renouncing ownership will leave the contract without an owner, thereby removing any functionality that is only available to the owner."
      },
      "transferOwnership(address)": {
        "details": "Transfers ownership of the contract to a new account (`newOwner`). Can only be called by the current owner."
      }
    },
    "version": 1
  },
  "userdoc": {
    "kind": "user",
    "methods": {},
    "version": 1
  }
}